:020000040000FA
:10000000B86400024D0200005502000057020000D3
:1000100000000000000000000000000000000000E0
:10002000000000000000000000000000A901000026
:100030000000000000000000ED0100001D0E0000A7
:100040006102000061020000610200006102000024
:100050006102000061020000610200006102000014
:100060006102000061020000610200006102000004
:1000700061020000610200006102000061020000F4
:1000800061020000610200006102000061020000E4
:1000900061020000610200006102000061020000D4
:1000A00061020000610200006102000061020000C4
:1000B00061020000610200006102000061020000B4
:1000C00061020000610200006102000061020000A4
:1000D0006102000061020000610200006102000094
:1000E0006102000061020000610200006102000084
:1000F00061020000610200006102000000F002F8ED
:1001000000F043F80AA090E8000C82448344AAF16E
:100110000107DA4501D100F038F8AFF2090EBAE86C
:100120000F0013F0010F18BFFB1A43F0010318472B
:100130004416000064160000103A24BF78C878C145
:10014000FAD8520724BF30C830C144BF04680C60DD
:10015000704700000023002400250026103A28BF25
:1001600078C1FBD8520728BF30C148BF0B60704729
:10017000642900F0A381002070471FB59DE80300AB
:1001800000F0F4F91FBD10B510BD00F01DFB1146C5
:10019000FFF7F3FF00F09EFE00F03BFB03B4FFF718
:1001A000F2FF03BC00F062FE204B19680868B0E85B
:1001B000F00F80F30988BFF36F8F4FF0000080F3DA
:1001C00011884EF00D0E70470000000006480068D0
:1001D000006880F3088862B661B6BFF34F8FBFF343
:1001E0006F8F00DF00BF00BF08ED00E0EFF3098074
:1001F000BFF36F8F0D4B1A6820E9F00F106008B540
:100200004FF0A00080F3118801F0BAF84FF0000021
:1002100080F31188BDE8084019680868B0E8F00F5D
:1002200080F30988BFF36F8F704700BF00000002A2
:10023000EFF311804FF0A00181F31188704780F334
:1002400011887047EFF30580704700000848804729
:1002500008480047FEE7FEE7FEE7FEE7FEE7FEE7A9
:10026000FEE7000004480549054A064B70470000B8
:10027000510E0000FD000000B8610002B8640002E9
:10028000B8620002B862000270B5064600F052F98A
:10029000056806F10B0020F00704B4429CBF002063
:1002A00070BD2B466A68BAB11068A04210D304F141
:1002B000080188423CBF5068586007D35168101944
:1002C00041601168091B016058601460101D70BD09
:1002D00013465268002AE7D12146284600F032F939
:1002E0000028DED170BD02F0FF0343EA032242EA98
:1002F000024200F0DFB9704770477047FFFFFFFF11
:1003000070B50446051F00F015F90068002C14BFF5
:10031000446870BD002C18BFAC423CBF20466468E6
:10032000F8D301680A18AA4218BF456003D12A68A9
:1003300005461144016028684119A1421CBF6C6048
:1003400070BD6168696021680844286070BD53EA27
:10035000020C00F069802DE9F04B4FF00006002BF5
:100360001FBFB3FA83F503FA05F424FA05F65E40DD
:1003700012BF1643B2FA82F502FA05F4C5F1200560
:100380001EBF22FA05FC44EA0C04203556EA044C50
:100390004FEA144418BF641C4FF000084FF00009E6
:1003A000904271EB030C39D3002919BFB1FA81F7E0
:1003B00001FA07F6B0FA80F700FA07F6C7F120074E
:1003C0001EBF20FA07FC46EA0C062037B6FBF4FCF9
:1003D000A7EB0507103F07F01F0BCBF120060CFA27
:1003E0000BFB2CFA06F644BFB3460026202FA4BF11
:1003F0005E464FF0000B5BEA060C08BF4FF0010BA6
:1004000019EB0B09ABFB027C48EB0608C01B06FB93
:1004100002CC0BFB03CC71EB0C01C1E70B4602468F
:1004200041464846BDE8F08B13B54FF000004FF051
:100430000001AFF30080BDE81C4070470FB40449D1
:1004400010B503AA029800F021F910BC5DF814FB66
:10045000480000022DE9F0410E46044600202062CB
:100460002046E168884730B3252805D0D4E901212A
:100470009047206A401CF2E7E16820460027884741
:10048000050018D0A5F14100192802D820354FF4F5
:1004900000673246294620462760FFF769FE40B1D3
:1004A000012804D0F61D26F007060836D8E7361DC9
:1004B000D6E72846DAE7206ABDE8F0812DE9F04169
:1004C0000646002410687529314616A510D0AFF3F2
:1004D0000080002802DA404213A507E031688A074D
:1004E00001D512A502E0490704D511A5012401E0B8
:1004F000AFF3008000210A2206F1240709E0B0FBD7
:10050000F2FCB0FBF2F302FB1C00303078541846CA
:10051000491C0028F3D123462A463046BDE8F04165
:1005200000F05AB8000000002D0000002B00000071
:1005300020000000004870475C610002704770476F
:100540007047704738B504460A460020694600F0F7
:1005500036F9002808BF38BD02460099204600F051
:10056000CDF8012038BD012000F0FAB8F8B5AFF39E
:100570000080054600200C46102000BF0646A81942
:10058000A0420DD932466946002000F018F9070054
:1005900008BF00F0E5F80098A04218BF0546C4194E
:1005A000FFF7C8FF05600746F01D20F00700461959
:1005B000284600F00AF8B44208BFF8BDA21B314635
:1005C0003868BDE8F84000F099B800210160C0E942
:1005D00001107047102070472DE9F0470D469946ED
:1005E0009246044600F124080168880604D5E069B3
:1005F00021F01001216000E00120A84201DD471B2D
:1006000000E00027A1697A1902EB0900081AA0612D
:100610002078C00602D42046AFF30080002608E010
:10062000D4E901211AF806009047206A401C761C84
:1006300020624E45F4DB2078C0060AD52046AFF391
:10064000008006E0D4E9012130209047206A401C58
:100650002062381EA7F10107F4DC07E0D4E901218C
:1006600018F805009047206A401C2062281EA5F15A
:100670000105F3DC2046AFF300802078000602D5A8
:100680000220BDE8F0870120FBE70000074B70B5B2
:100690000D467B4400F051F80446284600F000FC6B
:1006A00010B14FF0FF3070BD204670BD1108000042
:1006B0004FF000020429C0F0128010F0030C00F08B
:1006C0005880CCF1040CBCF1020F18BF00F8012BCC
:1006D000A8BF20F8022BA1EB0C0100F04AB85FEA9A
:1006E000C17C24BF00F8012B00F8012B48BF00F8A3
:1006F000012B704700487047546100020346406870
:100700008C46002818BF88423CBF03464068F8D397
:1007100018681844884207D00CF1030020F0070045
:10072000001D411A521A0146081D0A60FFF7E8BD74
:1007300001694A1C02610878704700B58FB0CDE9A5
:1007400001310021059105497944CDE90310114695
:100750006846FFF77FFE0FB000BD0000E5FFFFFF1A
:1007600010B500F065F8BDE8104000F05BB84FF040
:10077000000200B5134694469646203922BFA0E8F1
:100780000C50A0E80C50B1F12001BFF4F7AF0907FD
:1007900028BFA0E80C5048BF0CC05DF804EB8900EE
:1007A00028BF40F8042B08BF704748BF20F8022B31
:1007B00011F0804F18BF00F8012B7047704710B53B
:1007C00000F048FB10BD70477546FFF793FFAE463B
:1007D00005006946534620F00700854618B020B54D
:1007E000FFF740FDBDE820404FF000064FF0000746
:1007F0004FF000084FF0000B21F00701AC46ACE8C9
:10080000C009ACE8C009ACE8C009ACE8C0098D4635
:10081000704710B50446AFF300802046BDE8104095
:10082000FFF7BCBC002801D000F020BB70470000DF
:1008300010B5012805D0002103A000F021F8012007
:1008400010BD09A1F8E7000053494752544D454DEA
:100850003A204F7574206F662068656170206D6561
:100860006D6F7279000000003A2048656170206D5C
:10087000656D6F727920636F727275707465640054
:1008800070B505460C460A2000E06D1C00F011F81A
:1008900035B128780028F8D102E0641C00F009F88E
:1008A00014B120780028F8D1BDE870400A20AFF3D9
:1008B000008008B569468DF800000320ABBE08BD76
:1008C000154810B58021416381640D22002101206B
:1008D00000F0DEF900211222084600F0D9F900F0FC
:1008E000BFF8002100F064F90C4C204600F050FAEB
:1008F000206820F07C0040F0040020604FF4E131DB
:10090000204600F07FFA206840F001002060606817
:1009100020F04000606010BD00800F4000000440E7
:100920002DE9F041FFF7CCFF4FF0E054204600F0F6
:1009300075F90C4B0021DD1E0122585C6E5C04EB46
:10094000800000F50050076802FA06F6374307609A
:10095000585C6E5C04EB40108255491C0329ECDBAB
:10096000BDE8F081E316000010B503280BD2064A5B
:10097000054C4FF0E053E41E125C205C03EB421286
:1009800081F00101115410BDE316000010B500F014
:10099000CFF90B4C0120C4F8A4000320012161F31E
:1009A0009F10C4F8A001C80500F0B4F9D4F8A40160
:1009B00010F0010FFAD00120C4F8CC0010BD0000E7
:1009C0000040074070B50D2000F03AF80C2000F010
:1009D00037F80D24204600F061F9204600F070F948
:1009E0001D220A490A4800F02FF9084D0024083D4D
:1009F00035F81410C8B2C1F34122C90A01EB421103
:100A000000F034F9641C032CF2D370BD0017000011
:100A100000800F4010B5FFF7D5FFFFF7B7FF024981
:100A20000120C1F8CC0010BD0040074001B50122F3
:100A30006946024800F0D4F908BD000000000440F7
:100A400006490122202803D351F8C83F203801E08D
:100A500051F8C43F824013430B6070470040074089
:100A60000448D0F8840010F0FF0F01D000F01EB849
:100A700000F002B80040074008490020D1F880107B
:100A800011F0FF0105D0012905D0022900D1044849
:100A900070470448704704480068704700400740AA
:100AA000D8AC0700001BB700D81600000A49002088
:100AB000D1F8841011F0FF0108D0012908D00229D3
:100AC00008D0032901D1054800687047FFF7D4BF5B
:100AD00000F028B800F02EB800400740DC160000F7
:100AE00000F03F02521C01FB02F0704710F00300BF
:100AF00003D0012803D00020704702487047024805
:100B000000687047001BB700D816000010B5FFF74B
:100B1000A7FF0349D1F8C010B0FBF1F010BD0000F1
:100B2000004007400248D0F8A000FFF7DFBF0000F8
:100B30000040074010B5FFF7F5FF01460348D0F825
:100B40009801BDE81040FFF7CBBF00000040074010
:100B500070B50E4DD5F8D040B4B1FFF781FFB0FBB2
:100B6000F4F0D5F82821002192B2D34313F0FF0FFF
:100B700009D10902120A41EA10610002002302F5BC
:100B80008072FFF7E4FB70BD002070BD004007409D
:100B90000649042804D3001FC0B2C1F8840070477E
:100BA00041F8800F00204860704700000040074077
:100BB00070B50E460446FFF753FF0146B0FBF4F054
:100BC00000B901200D4DC2B2C5F8D02000227EB17F
:100BD00004FB101304FB00F2190E18020023FFF7A8
:100BE000B6FB0006000C40F0FF00C5F8280101E04C
:100BF000C5F82821BDE87040FFF7AABF00400740B4
:100C00000549D1F8242100F0030022F4405242EAC1
:100C10000030C1F8240170470040074010B50E2095
:100C2000FFF70EFF0F20FFF70BFF1020FFF708FF65
:100C30000B20FFF705FF0B24204600F02FF820467D
:100C4000BDE8104000F03CB870B500230BE000BFD9
:100C500051F82340E6B2C4F3072500EBC616240C76
:100C600046F825405B1C9342F2D370BD0207520E3A
:100C700000098300054810B503441868FF24944018
:100C8000A04391400143196010BD00000080034063
:100C900002EB4111C9B2FFF7E9BF0000074A012189
:100CA000202805D3936C203881400B439364704710
:100CB000536C81400B435364704700000040074071
:100CC000074A0121202805D3936C203881408B43AB
:100CD00093647047536C81408B43536470470000AA
:100CE0000040074010B50446FFF7D8FF2046BDE896
:100CF0001040FFF7E5BF0000044AD2F80812044B89
:100D0000194018400843C2F80802704700400740E5
:100D100078FFFF01044AD2F80812044B194018402A
:100D20008143C2F8081270470040074078FFFF0176
:100D300038B54FF40010FFF7EDFF00204FF40071BD
:100D40000090401C00908842FBDB104C0120C4F84E
:100D5000A00085052846FFF7CFFF0521022060F39C
:100D60009F11C4F898112846FFF7D4FFD4F89C01CE
:100D700010F0010FFAD00120C4F8C0000220FFF7E4
:100D80003FFFBDE838400620FFF702BF00400740A4
:100D900010B5044600F08EF8FFF752FE0748844273
:100DA00001D1312005E00648844201D1322000E023
:100DB0003320BDE81040FFF795BF0000000004405D
:100DC0000040044010B50346002003E011F8014B39
:100DD000DC61401C904202DA9C686407F6D410BDC6
:100DE000F0B51546074600260C4607E02A46214680
:100DF0003846FFF7E7FF2D1A06440444002DF5DCC2
:100E00003046F0BD70B50D460446FFF7A1FE29013E
:100E1000B0FBF1F1491E216270BD000010B5FFF773
:100E200007FA00F0AFFB18B104494FF0805008609A
:100E3000BDE810400020FFF702BA000004ED00E01A
:100E400010B5FFF763FE0149086010BD4C000002B9
:100E5000FFF7E0BD4FF4C040824201D90020704747
:100E6000014A0A60704700005401000230BFFDE7EC
:100E700009490120096809B1002070470749CA697A
:100E8000002AF9D1044A896828321268491E8A4228
:100E9000F3D1022070470000180100020000000298
:100EA0004FF0FF30704710B5C0B2FFF7BFFD002014
:100EB00010BD00000549884201D131207047044926
:100EC000884201D13220704733207047000004402F
:100ED000004004407FB5FFF7B3FFFFF721FD00217D
:100EE0000846FFF741FD00240125CDE90054029496
:100EF000234680220EA11148039400F08DFACDE91B
:100F000000540294002380220DA11048039400F0A5
:100F100083FACDE900540294002380220CA10F48EB
:100F2000039400F079FA00F0F7F904B0012070BDE5
:100F3000765461736B4C656431000000CD10000085
:100F4000765461736B4C656432000000E31000005E
:100F5000765461736B55617274000000C513000014
:100F600070B50B4C054620684560E06821688542F5
:100F700005D2606BBDE87040091D00F0CBB8206B56
:100F8000091D00F0C7F8A06A854200D2A56270BDB5
:100F90000000000270B5124E124C1AE000F0E8F9A1
:100FA0003068D0B100F048FB00F0D8F8F068C568B0
:100FB000281D00F077F8A068401EA0606068401E01
:100FC000606000F0D9F8286B00F0E0F8284600F0E7
:100FD000DDF860680028E1D170BD00F02DFBF8E776
:100FE0002C0100020000000206480168C96A09B12C
:100FF00000207047044909680129F9D8816AC0684E
:10100000081A704700000002500000020C4C00BF9C
:10101000FFF7C0FF2068012801D900F04DF900F06A
:1010200053F8FFF7E1FF0228F2D300F0A1F9FFF730
:10103000DBFF022801D300F0D9F800F0FDFAE7E762
:10104000500000020648016B096829B1016BC968AC
:10105000C9684968816270474FF0FF31FAE70000C4
:1010600000000002FFF7E4F8FEE710B5044600F0C8
:101070007FF92046FFF708F9044600F0DDFA204624
:1010800010BD000010B5031F4FF080741C601B1FC3
:101090001960191F024B0B60143940380A6010BDEB
:1010A00065100000D0E9013201699A60D0E901239E
:1010B0005A604A68824201D182684A600022026115
:1010C0000868401E0860704730BF70470024214602
:1010D0000020FFF749FC84F00104A62000F0F8F896
:1010E000F5E7002421460120FFF73EFC84F00104CF
:1010F000472000F0EDF8F5E700F108014FF0FF326E
:10110000C0E90112C1600161002101607047002146
:101110000161704730B50B685A1C02D000F108021B
:1011200002E0026904E02246546825689D42FAD92B
:1011300053684B6099608A60516008610168491C7E
:10114000016030BD42684A6093688B609368596063
:10115000916008610168491C0160704710B5FFF794
:1011600067F804480168491C0160BFF34F8FBFF363
:101170006F8F10BD3800000203490868401E0860E8
:1011800001D1FFF75CB870473800000210B50400C9
:1011900008D000F0EDF82046FFF7B2F8BDE81040A7
:1011A00000F04ABA10BD00000E4810B501684FF4B7
:1011B0007A72B1FBF2F30C486FF07F444360B4FBEA
:1011C000F3F38360B1FBF1F32D24B4FBF3F3B1FB34
:1011D000F2F1C3604FF0E020491E41610721016137
:1011E00010BD00004C000002380000022DE9F04163
:1011F000304E0546B068854200D905464FF0E024E0
:10120000206920F001002061A1697268681E02FB5C
:101210000017F068874200D93F1A72B6FFF728FE20
:1012200008B367610021A161206940F001002061DD
:1012300025B1BFF34F8F30BFBFF36F8F206920F010
:101240000102226162B6C00319D5A0697268381A1A
:10125000101AF368401E984201D3904200D9501EE4
:1012600060616D1E15E0A0696061206940F00100B9
:1012700020617068401E606162B6BDE8F0817068F0
:10128000A2694543AA1AB2FBF0F56B1C4343981AB6
:101290006061A161FFF762FF206940F001002061F9
:1012A000284600F05DF87068401E6061BDE8F041BE
:1012B000FFF762BF3800000204494FF08050086019
:1012C000BFF34F8FBFF36F8F7047000004ED00E056
:1012D00070B5020018D000F04BF80E4CE06885188D
:1012E0002068001DFFF7DEFE38B9206890F82C104A
:1012F000012088402169814321612846FFF730FEA3
:1013000000F09AF9002803D1BDE87040FFF7D4BF80
:1013100070BD0000000000021FB50024009401947D
:101320000294234680220AA10B48039400F074F82B
:1013300001280BD1FEF77CFF0848611E8162012164
:101340004161C460BDE81F4000F04EB81FBD000001
:1013500049444C45000000000D1000000000000250
:101360000249CA681044C8607047000000000002CB
:101370000248C16A491CC1627047000000000002B7
:101380000E48C16A11B10121C16170470021C161DC
:1013900001690B4AB1FA81F1C1F11F0101EB810131
:1013A00002EB810101F108034A6852684A609A42DF
:1013B00001D152684A60D1680160704700000002A4
:1013C0005000000200244FF47A75214603A0FFF775
:1013D00035F82846641CFFF77BFFF6E75469636B1A
:1013E0003A202564200D0A00094810B5016841F033
:1013F00078710160016841F060410160FFF7D4FE3F
:10140000044900200860FEF7E1FE002010BD000046
:1014100020ED00E0380000022DE9FF5F8A46DDE99B
:101420000F9091000E9F9B461546884610B90846BE
:10143000FFF71BFE060018D06020FFF716FE040021
:10144000304610D0A52241462063FEF74CFF6FF0D6
:10145000030101EB8501206B3D46084420F007089D
:101460005146002004E0FFF791FE4FF0FF3481E089
:1014700022180B5C82F834300A5C12B1401C14282C
:10148000F6D3002684F84760082D00D30725E562CF
:10149000C4E91456201DFFF73AFE04F11800FFF7C7
:1014A00036FE2461C5F108016462A161A66584F875
:1014B0005C605A4640460099FFF7E4FD2060B9F1B0
:1014C000000F01D0C9F80040FFF748FE2B4DA86877
:1014D000401CA8602868DFF8A88010B1686940B394
:1014E0002CE02C60A868012828D1002606EB860194
:1014F00008EB8100FFF700FE761C082EF6D320488B
:10150000A030FFF7F9FD1E48B430FFF7F5FD1C4889
:10151000C830FFF7F1FD1A48DC30FFF7EDFD184841
:10152000F030FFF7E9FD1648A030286314306863F7
:1015300004E02868C06AB84200D82C60686A0121BB
:10154000401C6862A064E06A2A69814011432961F5
:1015500000EB800108EB8100211DFFF7F3FD012462
:10156000FFF70AFE686928B12868C06AB84201D24C
:10157000FFF7A2FE04B02046BDE8F09F0000000285
:10158000500000022DE9F041294C0026E06A40B1EC
:10159000A069401CA061E06900B101263046BDE8A9
:1015A000F081E068401CE060E76847B9206B616B40
:1015B00021636063206A401C2062FFF743FDA06A3C
:1015C000DFF87080874209D3206B006880B1206B00
:1015D000C068C568686887420DD2A0622068C06A8A
:1015E00000EB800158F821000128D4D90126D2E768
:1015F0004FF0FF30F1E7281DFFF754FDA86A18B13E
:1016000005F11800FFF74EFDE86A012122698140CB
:101610001143216100EB800108EB8100291DFFF7D8
:1016200091FDE86A2168C96A8842CDD30126CBE7DB
:1016300000000002500000022DE9F0470027FFF7EC
:101640008DFD234CE06A401EE062E06A98BBA16811
:10165000204E012079B3A6F1C80980463068E8B170
:10166000F068C56805F11800FFF71CFD281DFFF79D
:1016700019FDE96A226908FA01F01043206101EBC3
:10168000810109EB8100291DFFF75CFDE86A2168F3
:10169000C96A8842E2D3C4F81C80DFE7A06958B168
:1016A0004546A06940B1FFF76DFF00B1E561A06953
:1016B000401EA061F5E705E0E069012802D101279D
:1016C000FFF7FAFDFFF758FD3846BDE8F087000048
:1016D0000000000218010002001BB700008000009B
:1016E00019030100000101010101010406080705B9
:1016F0000102040810000000705A01680090000008
:1017000000198000000380000101800000028000B9
:10171000001E80000011800000198000010180007F
:101720000017800000168000000B8000001F800062
:101730000103000000040000000500000007000095
:101740000008000000090000000A000001048000F9
:10175000010580000106800001078000010880006B
:10176000000D800000128000000B8000001F800030
:10177000010B8800941700000000000250000000D8
:1017800038010000E4170000500000026864000007
:1017900054010000000000000000000000000000F4
:1017A0000000000000000000000000000000000039
:1017B0000000000000000000000000000000000029
:1017C000000000000000000000000000AAAAAAAA71
:1017D0000000000000000000000000000000000009
:0417E0000000000005
:04000005000000FDFA
:00000001FF
